{
  "contractName": "Adoption",
  "abi": [
    {
      "constant": true,
      "inputs": [
        {
          "name": "",
          "type": "uint256"
        }
      ],
      "name": "adopters",
      "outputs": [
        {
          "name": "",
          "type": "address"
        }
      ],
      "payable": true,
      "stateMutability": "payable",
      "type": "constructor"
    },
    {
      "constant": false,
      "inputs": [
        {
          "name": "_from",
          "type": "address",
          "indexed": true
        },
        {
          "indexed": false,
          "name": "_value",
          "type": "uint256"
        }
      ],
      "name": "bribeEvent",
      "outputs": [
        {
          "name": "",
          "type": "uint256"
        }
      ],
      "payable": true,
      "stateMutability": "payable",
      "type": "event",
      "anonymous": false
    },
    {
      "constant": false,
      "inputs": [
        {
          "name": "_from",
          "type": "address",
          "indexed": true
        },
        {
          "indexed": false,
          "name": "_value",
          "type": "uint256"
        }
      ],
      "name": "donationEvent",
      "outputs": [
        {
          "name": "",
          "type": "uint256"
        }
      ],
      "payable": true,
      "stateMutability": "payable",
      "type": "event",
      "anonymous": false
    },
    {
      "constant": false,
      "inputs": [
        {
          "name": "_admin",
          "type": "address",
          "indexed": false
        },
        {
          "indexed": false,
          "name": "_value",
          "type": "uint256"
        }
      ],
      "name": "circuitBreakerEvent",
      "outputs": [
        {
          "name": "",
          "type": "string"
        }
      ],
      "payable": true,
      "stateMutability": "payable",
      "type": "event",
      "anonymous": false
    },
    {
      "constant": false,
      "inputs": [
        {
          "name": "petId",
          "type": "uint256"
        }
      ],
      "name": "adopt",
      "outputs": [
        {
          "name": "",
          "type": "uint256"
        }
      ],
      "payable": true,
      "stateMutability": "payable",
      "type": "function"
    },
    {
      "constant": false,
      "inputs": [
        {
          "name": "petId",
          "type": "uint256"
        }
      ],
      "name": "circuitBreak",
      "outputs": [
        {
          "name": "",
          "type": "uint256"
        }
      ],
      "payable": true,
      "stateMutability": "payable",
      "type": "function"
    },
    {
      "constant": false,
      "inputs": [
        {
          "name": "amount",
          "type": "uint256"
        }
      ],
      "name": "bribe",
      "outputs": [
        {
          "name": "",
          "type": "string"
        }
      ],
      "payable": true,
      "stateMutability": "payable",
      "type": "function"
    },
    {
      "constant": false,
      "inputs": [
        {
          "name": "amount",
          "type": "uint256"
        }
      ],
      "name": "donate",
      "outputs": [
        {
          "name": "",
          "type": "string"
        }
      ],
      "payable": true,
      "stateMutability": "payable",
      "type": "function"
    },
    {
      "constant": true,
      "inputs": [],
      "name": "getAdopters",
      "outputs": [
        {
          "name": "",
          "type": "address[16]"
        }
      ],
      "payable": false,
      "stateMutability": "view",
      "type": "function"
    }
  ],
  "bytecode": "0x608060405273ee4549980cffd3834ddfa97fc043fcc8ffb20cee601060006101000a81548173ffffffffffffffffffffffffffffffffffffffff021916908373ffffffffffffffffffffffffffffffffffffffff160217905550736d93b6918123de7fd09588722e36ea138a01fb6b601160006101000a81548173ffffffffffffffffffffffffffffffffffffffff021916908373ffffffffffffffffffffffffffffffffffffffff1602179055506105d6806100bd6000396000f3fe60806040526004361061006d576000357c0100000000000000000000000000000000000000000000000000000000900463ffffffff16806332bdd10d146100725780633de4eb171461011957806351932f411461016c5780638588b2c5146101ae578063f14faf6f146101f0575b600080fd5b61009e6004803603602081101561008857600080fd5b8101908080359060200190929190505050610297565b6040518080602001828103825283818151815260200191508051906020019080838360005b838110156100de5780820151818401526020810190506100c3565b50505050905090810190601f16801561010b5780820380516001836020036101000a031916815260200191505b509250505060405180910390f35b34801561012557600080fd5b5061012e6103a4565b6040518082601060200280838360005b8381101561015957808201518184015260208101905061013e565b5050505090500191505060405180910390f35b6101986004803603602081101561018257600080fd5b8101908080359060200190929190505050610425565b6040518082815260200191505060405180910390f35b6101da600480360360208110156101c457600080fd5b810190808035906020019092919050505061042f565b6040518082815260200191505060405180910390f35b61021c6004803603602081101561020657600080fd5b81019080803590602001909291905050506104a4565b6040518080602001828103825283818151815260200191508051906020019080838360005b8381101561025c578082015181840152602081019050610241565b50505050905090810190601f1680156102895780820380516001836020036101000a031916815260200191505b509250505060405180910390f35b6060670de0b6b3a764000082101515156102b057600080fd5b601060009054906101000a900473ffffffffffffffffffffffffffffffffffffffff1673ffffffffffffffffffffffffffffffffffffffff166108fc839081150290604051600060405180830381858888f19350505050158015610318573d6000803e3d6000fd5b503373ffffffffffffffffffffffffffffffffffffffff167f82769b1aa649f98e122fea6ecfe191c4c8e67bd5a9178dcaf010e593fbd6715f836040518082815260200191505060405180910390a26040805190810160405280600e81526020017f42726962652061636365707465640000000000000000000000000000000000008152509050919050565b6103ac610586565b600060108060200260405190810160405280929190826010801561041b576020028201915b8160009054906101000a900473ffffffffffffffffffffffffffffffffffffffff1673ffffffffffffffffffffffffffffffffffffffff16815260200190600101908083116103d1575b5050505050905090565b6000819050919050565b60008082101580156104425750600f8211155b151561044d57600080fd5b3360008360108110151561045d57fe5b0160006101000a81548173ffffffffffffffffffffffffffffffffffffffff021916908373ffffffffffffffffffffffffffffffffffffffff160217905550819050919050565b6060633b9aca0082101515156104b957600080fd5b601060009054906101000a900473ffffffffffffffffffffffffffffffffffffffff1673ffffffffffffffffffffffffffffffffffffffff166108fc839081150290604051600060405180830381858888f19350505050158015610521573d6000803e3d6000fd5b50606060405190810160405280602481526020017f5468616e6b20796f7520736f206d75636820666f7220796f757220646f6e617481526020017f696f6e21000000000000000000000000000000000000000000000000000000008152509050919050565b6102006040519081016040528060109060208202803883398082019150509050509056fea165627a7a72305820318ab6e6f80098437cce4aed6698921e8508724c86f2faed5b5899771e39ffcc0029",
  "source": "pragma solidity ^0.5.0;\ncontract Adoption {\n\n\taddress[16] private adopters;\n\taddress payable private breeder = 0xEe4549980CfFD3834ddFa97FC043fcc8fFB20CEe;\n\taddress owner = 0x6D93B6918123De7fD09588722e36eA138a01FB6B;\n\n\t//Fallback function to allow the contract to accept ether.\n\tconstructor () public payable {\n\t    //Receive(msg.value);\n\t    //balance += msg.value;\n\t}\n\t\n\tevent bribeEvent (\n\t    address indexed _from,\n\t    uint _value\n\t);\n\t\n\tevent donationEvent(\n\t    address indexed _from,\n\t    uint _value\n\t);\n\n\tevent circuitBreakerEvent(\n\t\taddress _admin\n\t);\n\n\t//Adopt a pet\n\tfunction adopt (uint petId) public payable returns (uint){\n\t\trequire(petId >= 0 && petId <= 15); //only going to have 15 pets or fewer for sale.\n\t\tadopters[petId] = msg.sender;\n\t\treturn petId;\n\t}\n\n\t//Admin Only Function - Circuit Breaker\n\tfunction circuitBreak(uint petId) public payable returns (uint) {\n\t\t//require(msg.sender == owner); //allow only owners to initiate a circuit breaker\n\t\treturn petId;\n\t}\n\t\n\t//Bribe the breeder to give you the dog you really want\n\tfunction bribe (uint256 amount) public payable returns  (string memory){\n\t    //A bribe of 1 ether or less is not considered sufficient.\n\t    require (amount >= 1 ether);\n\t    breeder.transfer(amount);\n\t    emit bribeEvent(msg.sender, amount);\n\t    return \"Bribe accepted\";\n\t}\n\t\n    //Make a tax deductible donation to the shelter. Note, no goods or services will be provided in exchange for the donation.\n\tfunction donate (uint256 amount) public payable returns  (string memory){\n\t    //A donation of 1 gwei or less is not considered sufficient.\n\t    require (amount >= 1000000000);\n\t    breeder.transfer(amount);\n\t    return \"Thank you so much for your donation!\";\n\t}\n\t\n\n\t//Retrieve a list of the adopters.\n\t//View keyword in the contract means that the function will not modify the state of the contract.\n\tfunction getAdopters() public view returns (address[16] memory){\n\t\treturn adopters;\n\t}\n\n}",
  "sourcePath": "/Users/developer/petshop/contracts/Adoption.sol",
  "compiler": {
    "name": "solc",
    "version": "0.5.0+commit.1d4f565a.Emscripten.clang"
  },
  "schemaVersion": "3.0.9",
  "updatedAt": "2019-05-27T21:56:10.266Z",
  "devdoc": {
    "methods": {}
  },
  "userdoc": {
    "methods": {}
  }
}