{
  "contractName": "Adoption",
  "abi": [
    {
      "constant": true,
      "inputs": [],
      "name": "isActive",
      "outputs": [
        {
          "name": "",
          "type": "bool"
        }
      ],
      "payable": false,
      "stateMutability": "view",
      "type": "function"
    },
    {
      "constant": true,
      "inputs": [
        {
          "name": "",
          "type": "uint256"
        }
      ],
      "name": "adopters",
      "outputs": [
        {
          "name": "",
          "type": "address"
        }
      ],
      "payable": false,
      "stateMutability": "view",
      "type": "function"
    },
    {
      "inputs": [],
      "payable": true,
      "stateMutability": "payable",
      "type": "constructor"
    },
    {
      "anonymous": false,
      "inputs": [
        {
          "indexed": true,
          "name": "_from",
          "type": "address"
        },
        {
          "indexed": false,
          "name": "_value",
          "type": "uint256"
        }
      ],
      "name": "donationEvent",
      "type": "event"
    },
    {
      "anonymous": false,
      "inputs": [
        {
          "indexed": false,
          "name": "_blockNumber",
          "type": "uint256"
        }
      ],
      "name": "circuitBreakerEvent",
      "type": "event"
    },
    {
      "constant": false,
      "inputs": [
        {
          "name": "petId",
          "type": "uint256"
        }
      ],
      "name": "adopt",
      "outputs": [
        {
          "name": "",
          "type": "uint256"
        }
      ],
      "payable": true,
      "stateMutability": "payable",
      "type": "function"
    },
    {
      "constant": false,
      "inputs": [],
      "name": "disable",
      "outputs": [
        {
          "name": "",
          "type": "bool"
        }
      ],
      "payable": false,
      "stateMutability": "nonpayable",
      "type": "function"
    },
    {
      "constant": false,
      "inputs": [],
      "name": "enable",
      "outputs": [
        {
          "name": "",
          "type": "bool"
        }
      ],
      "payable": false,
      "stateMutability": "nonpayable",
      "type": "function"
    },
    {
      "constant": true,
      "inputs": [],
      "name": "getStatus",
      "outputs": [
        {
          "name": "",
          "type": "bool"
        }
      ],
      "payable": false,
      "stateMutability": "view",
      "type": "function"
    },
    {
      "constant": false,
      "inputs": [
        {
          "name": "amount",
          "type": "uint256"
        }
      ],
      "name": "bribe",
      "outputs": [
        {
          "name": "",
          "type": "string"
        }
      ],
      "payable": true,
      "stateMutability": "payable",
      "type": "function"
    },
    {
      "constant": false,
      "inputs": [
        {
          "name": "amount",
          "type": "uint256"
        }
      ],
      "name": "donate",
      "outputs": [
        {
          "name": "",
          "type": "string"
        }
      ],
      "payable": true,
      "stateMutability": "payable",
      "type": "function"
    },
    {
      "constant": true,
      "inputs": [],
      "name": "getAdopters",
      "outputs": [
        {
          "name": "",
          "type": "address[16]"
        }
      ],
      "payable": false,
      "stateMutability": "view",
      "type": "function"
    }
  ],
  "bytecode": "0x608060405273ee4549980cffd3834ddfa97fc043fcc8ffb20cee601060006101000a81548173ffffffffffffffffffffffffffffffffffffffff021916908373ffffffffffffffffffffffffffffffffffffffff160217905550736d93b6918123de7fd09588722e36ea138a01fb6b601160006101000a81548173ffffffffffffffffffffffffffffffffffffffff021916908373ffffffffffffffffffffffffffffffffffffffff1602179055506001601160146101000a81548160ff021916908315150217905550610745806100d86000396000f3fe608060405260043610610099576000357c0100000000000000000000000000000000000000000000000000000000900463ffffffff16806322f3e2d41461009e5780632f2770db146100cd57806332bdd10d146100fc5780633de4eb17146101a357806343ae80d3146101f65780634e69d560146102715780638588b2c5146102a0578063a3907d71146102e2578063f14faf6f14610311575b600080fd5b3480156100aa57600080fd5b506100b36103b8565b604051808215151515815260200191505060405180910390f35b3480156100d957600080fd5b506100e26103cb565b604051808215151515815260200191505060405180910390f35b6101286004803603602081101561011257600080fd5b81019080803590602001909291905050506103ee565b6040518080602001828103825283818151815260200191508051906020019080838360005b8381101561016857808201518184015260208101905061014d565b50505050905090810190601f1680156101955780820380516001836020036101000a031916815260200191505b509250505060405180910390f35b3480156101af57600080fd5b506101b86104ad565b6040518082601060200280838360005b838110156101e35780820151818401526020810190506101c8565b5050505090500191505060405180910390f35b34801561020257600080fd5b5061022f6004803603602081101561021957600080fd5b810190808035906020019092919050505061052e565b604051808273ffffffffffffffffffffffffffffffffffffffff1673ffffffffffffffffffffffffffffffffffffffff16815260200191505060405180910390f35b34801561027d57600080fd5b50610286610563565b604051808215151515815260200191505060405180910390f35b6102cc600480360360208110156102b657600080fd5b810190808035906020019092919050505061057a565b6040518082815260200191505060405180910390f35b3480156102ee57600080fd5b506102f76105ef565b604051808215151515815260200191505060405180910390f35b61033d6004803603602081101561032757600080fd5b8101908080359060200190929190505050610613565b6040518080602001828103825283818151815260200191508051906020019080838360005b8381101561037d578082015181840152602081019050610362565b50505050905090810190601f1680156103aa5780820380516001836020036101000a031916815260200191505b509250505060405180910390f35b601160149054906101000a900460ff1681565b600080601160146101000a81548160ff0219169083151502179055506001905090565b6060670de0b6b3a7640000821015151561040757600080fd5b601060009054906101000a900473ffffffffffffffffffffffffffffffffffffffff1673ffffffffffffffffffffffffffffffffffffffff166108fc839081150290604051600060405180830381858888f1935050505015801561046f573d6000803e3d6000fd5b506040805190810160405280600e81526020017f42726962652061636365707465640000000000000000000000000000000000008152509050919050565b6104b56106f5565b6000601080602002604051908101604052809291908260108015610524576020028201915b8160009054906101000a900473ffffffffffffffffffffffffffffffffffffffff1673ffffffffffffffffffffffffffffffffffffffff16815260200190600101908083116104da575b5050505050905090565b60008160108110151561053d57fe5b016000915054906101000a900473ffffffffffffffffffffffffffffffffffffffff1681565b6000601160149054906101000a900460ff16905090565b600080821015801561058d5750600f8211155b151561059857600080fd5b336000836010811015156105a857fe5b0160006101000a81548173ffffffffffffffffffffffffffffffffffffffff021916908373ffffffffffffffffffffffffffffffffffffffff160217905550819050919050565b60006001601160146101000a81548160ff0219169083151502179055506001905090565b6060633b9aca00821015151561062857600080fd5b601060009054906101000a900473ffffffffffffffffffffffffffffffffffffffff1673ffffffffffffffffffffffffffffffffffffffff166108fc839081150290604051600060405180830381858888f19350505050158015610690573d6000803e3d6000fd5b50606060405190810160405280602481526020017f5468616e6b20796f7520736f206d75636820666f7220796f757220646f6e617481526020017f696f6e21000000000000000000000000000000000000000000000000000000008152509050919050565b6102006040519081016040528060109060208202803883398082019150509050509056fea165627a7a723058200c876643197799c7d943b72560890bfc8f2ae350925e36af1e766b0028163bbd0029",
  "source": "pragma solidity ^0.5.0;\n//import library to prevent integer underflow / overflow.\nimport \"./SafeMath.sol\";\n\n/** @title Adoption contract for Kevin's Pet Shop. */\ncontract Adoption {\n\n\tusing SafeMath for uint;\n\taddress[16] public adopters;\n\taddress payable private breeder = 0xEe4549980CfFD3834ddFa97FC043fcc8fFB20CEe;\n\taddress owner = 0x6D93B6918123De7fD09588722e36eA138a01FB6B;\n\n\tuint256 private constant minimum_donation = 1000000000;\n\tbool public isActive = true; \n\n\t//Fallback function to allow the contract to accept ether.\n\tconstructor () public payable {\n\t    //Receive(msg.value);\n\t    //balance += msg.value;\n\t}\n\t\n\tevent donationEvent(\n\t    address indexed _from,\n\t    uint _value\n\t);\n\n\tevent circuitBreakerEvent(\n\t\tuint256 _blockNumber\n\t);\n\t\n\tmodifier onlyOwner(){\n\t    require(msg.sender == owner);\n\t    _;\n\t}\n\n\t/** @dev Marks a pet as adopted with the msg.sender as the new owner.\n\t  * @dev isActive circuitBreaker must be == true in order for function to execute. \n      * @param petId the id of the pet, a uint between 0 and 15 inclusive.\n      * @return petId the id of the successfully adopted pet.\n      */\n\tfunction adopt (uint petId) public payable returns (uint){\n\t    //require (isActive == true);\n\t\trequire(petId >= 0 && petId <= 15); //only going to have 15 pets or fewer for sale.\n\t\tadopters[petId] = msg.sender;\n\t\treturn petId;\n\t}\n\n\t/** @dev Triggers circuit breaker and pauses all adoptions. Only admin can trigger. \n      * @return true bool if the circuitbreaker is successfully executed.\n      */\n\tfunction disable() public returns (bool) {\n\t\tisActive = false;\n\t\t//require(msg.sender == owner); //allow only owners to initiate a circuit breaker\n\t\treturn true;\n\t}\n\n\t/** @dev Re-enables all adoptions. Only admin can trigger. \n      * @return true bool if isActive is now true.\n      */\n\tfunction enable() public returns (bool) {\n\t\tisActive = true;\n\t\t//require(msg.sender == owner); //allow only owners to initiate a circuit breaker\n\t\treturn true;\n\t}\n\n\t/** @dev Gets the status of the isActive state variable. \n      * @return isActive bool\n      */\n\tfunction getStatus() external view returns (bool)\n\t{\n\t\treturn isActive;\n\t}\n\t\n\t/** @dev Allows user to send a bribe with a value specified and a petId of their desired pet.\n      * @param amount the value attached to the bribe - anything less than 1 ether is refused.\n      * @return string indicated the bribe was received successfully.\n      */\n\tfunction bribe (uint256 amount) public payable returns  (string memory){\n\t    //A bribe of 1 ether or less is not considered sufficient.\n\t    require (amount >= 1 ether);\n\t    breeder.transfer(amount);\n\t    //emit bribeEvent(msg.sender, amount);\n\t    return \"Bribe accepted\";\n\t}\n\t\n    /** @dev Allows user to donate a specified amount.\n      * @param amount the value attached to the bribe - anything less than 1 ether is refused.\n      * @return string indicated the donation was received successfully.\n      */\n\tfunction donate (uint256 amount) public payable returns  (string memory){\n\t    //A donation of 1 gwei or less is not considered sufficient.\n\t    require (amount >= minimum_donation);\n\t    breeder.transfer(amount);\n\t    return \"Thank you so much for your donation!\";\n\t}\n\t\n\t/** @dev Retrieve a list of the adopters.\n      * @return adopters a list of the new owners of the pets.\n      */\n\tfunction getAdopters() public view returns (address[16] memory){\n\t\treturn adopters;\n\t}\n\n}",
  "sourcePath": "/Users/developer/petshop/contracts/Adoption.sol",
  "compiler": {
    "name": "solc",
    "version": "0.5.0+commit.1d4f565a.Emscripten.clang"
  },
  "schemaVersion": "3.0.9",
  "updatedAt": "2019-05-30T02:40:51.635Z",
  "devdoc": {
    "methods": {
      "adopt(uint256)": {
        "details": "Marks a pet as adopted with the msg.sender as the new owner.isActive circuitBreaker must be == true in order for function to execute. ",
        "params": {
          "petId": "the id of the pet, a uint between 0 and 15 inclusive."
        },
        "return": "petId the id of the successfully adopted pet."
      },
      "bribe(uint256)": {
        "details": "Allows user to send a bribe with a value specified and a petId of their desired pet.",
        "params": {
          "amount": "the value attached to the bribe - anything less than 1 ether is refused."
        },
        "return": "string indicated the bribe was received successfully."
      },
      "disable()": {
        "details": "Triggers circuit breaker and pauses all adoptions. Only admin can trigger. ",
        "return": "true bool if the circuitbreaker is successfully executed."
      },
      "donate(uint256)": {
        "details": "Allows user to donate a specified amount.",
        "params": {
          "amount": "the value attached to the bribe - anything less than 1 ether is refused."
        },
        "return": "string indicated the donation was received successfully."
      },
      "enable()": {
        "details": "Re-enables all adoptions. Only admin can trigger. ",
        "return": "true bool if isActive is now true."
      },
      "getAdopters()": {
        "details": "Retrieve a list of the adopters.",
        "return": "adopters a list of the new owners of the pets."
      },
      "getStatus()": {
        "details": "Gets the status of the isActive state variable. ",
        "return": "isActive bool"
      }
    },
    "title": "Adoption contract for Kevin's Pet Shop. "
  },
  "userdoc": {
    "methods": {}
  }
}