{
  "contractName": "Adoption",
  "abi": [
    {
      "constant": true,
      "inputs": [
        {
          "name": "",
          "type": "uint256"
        }
      ],
      "name": "adopters",
      "outputs": [
        {
          "name": "",
          "type": "address"
        }
      ],
      "payable": false,
      "stateMutability": "view",
      "type": "function"
    },
    {
      "constant": false,
      "inputs": [
        {
          "name": "petId",
          "type": "uint256"
        }
      ],
      "name": "adopt",
      "outputs": [
        {
          "name": "",
          "type": "uint256"
        }
      ],
      "payable": true,
      "stateMutability": "payable",
      "type": "constructor"
    },
    {
      "constant": false,
      "inputs": [
        {
          "name": "petId",
          "type": "uint256"
        }
      ],
      "name": "adopt",
      "outputs": [
        {
          "name": "",
          "type": "uint256"
        }
      ],
      "payable": true,
      "stateMutability": "payable",
      "type": "function"
    },
    {
      "constant": false,
      "inputs": [
        {
          "name": "amount",
          "type": "uint256"
        }
      ],
      "name": "bribe",
      "outputs": [
        {
          "name": "",
          "type": "string"
        }
      ],
      "payable": true,
      "stateMutability": "payable",
      "type": "function"
    },
    {
      "constant": false,
      "inputs": [
        {
          "name": "amount",
          "type": "uint256"
        }
      ],
      "name": "donate",
      "outputs": [
        {
          "name": "",
          "type": "string"
        }
      ],
      "payable": true,
      "stateMutability": "payable",
      "type": "function"
    },
    {
      "constant": true,
      "inputs": [],
      "name": "getAdopters",
      "outputs": [
        {
          "name": "",
          "type": "address[16]"
        }
      ],
      "payable": false,
      "stateMutability": "view",
      "type": "function"
    }
  ],
  "bytecode": "0x608060405273cf19ce45e640e8f7b6a6e669a899f1e4b380bc66601060006101000a81548173ffffffffffffffffffffffffffffffffffffffff021916908373ffffffffffffffffffffffffffffffffffffffff16021790555067016345785d8a00006011556105e1806100746000396000f3fe60806040526004361061006d576000357c0100000000000000000000000000000000000000000000000000000000900463ffffffff16806332bdd10d146100725780633de4eb171461011957806343ae80d31461016c5780638588b2c5146101e7578063f14faf6f14610229575b600080fd5b61009e6004803603602081101561008857600080fd5b81019080803590602001909291905050506102d0565b6040518080602001828103825283818151815260200191508051906020019080838360005b838110156100de5780820151818401526020810190506100c3565b50505050905090810190601f16801561010b5780820380516001836020036101000a031916815260200191505b509250505060405180910390f35b34801561012557600080fd5b5061012e610397565b6040518082601060200280838360005b8381101561015957808201518184015260208101905061013e565b5050505090500191505060405180910390f35b34801561017857600080fd5b506101a56004803603602081101561018f57600080fd5b8101908080359060200190929190505050610418565b604051808273ffffffffffffffffffffffffffffffffffffffff1673ffffffffffffffffffffffffffffffffffffffff16815260200191505060405180910390f35b610213600480360360208110156101fd57600080fd5b810190808035906020019092919050505061044d565b6040518082815260200191505060405180910390f35b6102556004803603602081101561023f57600080fd5b81019080803590602001909291905050506104c2565b6040518080602001828103825283818151815260200191508051906020019080838360005b8381101561029557808201518184015260208101905061027a565b50505050905090810190601f1680156102c25780820380516001836020036101000a031916815260200191505b509250505060405180910390f35b6060670de0b6b3a764000082101515156102e957600080fd5b601060009054906101000a900473ffffffffffffffffffffffffffffffffffffffff1673ffffffffffffffffffffffffffffffffffffffff166108fc670de0b6b3a76400009081150290604051600060405180830381858888f19350505050158015610359573d6000803e3d6000fd5b506040805190810160405280600e81526020017f42726962652061636365707465640000000000000000000000000000000000008152509050919050565b61039f610591565b600060108060200260405190810160405280929190826010801561040e576020028201915b8160009054906101000a900473ffffffffffffffffffffffffffffffffffffffff1673ffffffffffffffffffffffffffffffffffffffff16815260200190600101908083116103c4575b5050505050905090565b60008160108110151561042757fe5b016000915054906101000a900473ffffffffffffffffffffffffffffffffffffffff1681565b60008082101580156104605750600f8211155b151561046b57600080fd5b3360008360108110151561047b57fe5b0160006101000a81548173ffffffffffffffffffffffffffffffffffffffff021916908373ffffffffffffffffffffffffffffffffffffffff160217905550819050919050565b6060601060009054906101000a900473ffffffffffffffffffffffffffffffffffffffff1673ffffffffffffffffffffffffffffffffffffffff166108fc349081150290604051600060405180830381858888f1935050505015801561052c573d6000803e3d6000fd5b50606060405190810160405280602481526020017f5468616e6b20796f7520736f206d75636820666f7220796f757220646f6e617481526020017f696f6e21000000000000000000000000000000000000000000000000000000008152509050919050565b6102006040519081016040528060109060208202803883398082019150509050509056fea165627a7a7230582078e6d1e0fb795b250fd47263ad0602a4e70365f6498ef937412856bdd90bdc550029",
  "source": "pragma solidity ^0.5.0;\ncontract Adoption {\n\n\taddress[16] public adopters;\n\taddress payable breeder = 0xcF19Ce45E640e8F7b6a6e669a899F1E4B380BC66;\n\tuint priceOfDog = 100000000000000000; \n\n\t//Fallback function to allow the contract to accept ether.\n\tconstructor () public payable {\n\t    //Receive(msg.value);\n\t    //balance += msg.value;\n\t}\n\n\t//Adopt a pet\n\tfunction adopt (uint petId) public payable returns (uint){\n\t\trequire(petId >= 0 && petId <= 15); //only going to have 15 pets or fewer for sale.\n\t\t//require(msg.value >= priceOfDog); //require the message to \n\t\tadopters[petId] = msg.sender;\n\t\treturn petId;\n\t}\n\t\n\t//Bribe the breeder to give you the dog you really want\n\tfunction bribe (uint amount) public payable returns  (string memory){\n\t    //A bribe of 1 ether or less is not considered sufficient.\n    \trequire (amount >= 1 ether);\n\t    breeder.transfer(1000000000000000000);\n\t    return \"Bribe accepted\";\n\t}\n\t\n    //Make a tax deductible donation to the shelter. Note, no goods or services will be provided in exchange for the donation.\n\tfunction donate (uint amount) public payable returns  (string memory){\n\t    breeder.transfer(msg.value);\n\t    return \"Thank you so much for your donation!\";\n\t}\n\t\n\n\t//Retrieve a list of the adopters.\n\t//View keyword in the contract means that the function will not modify the state of the contract.\n\tfunction getAdopters() public view returns (address[16] memory){\n\t\treturn adopters;\n\t}\n\n\n}",
  "sourcePath": "/Users/developer/petshop/contracts/Adoption.sol",
  "compiler": {
    "name": "solc",
    "version": "0.5.0+commit.1d4f565a.Emscripten.clang"
  },
  "schemaVersion": "3.0.9",
  "updatedAt": "2019-05-23T01:17:48.357Z",
  "devdoc": {
    "methods": {}
  },
  "userdoc": {
    "methods": {}
  }
}