{
  "contractName": "Adoption",
  "abi": [
    {
      "constant": true,
      "inputs": [
        {
          "name": "",
          "type": "uint256"
        }
      ],
      "name": "adopters",
      "outputs": [
        {
          "name": "",
          "type": "address"
        }
      ],
      "payable": false,
      "stateMutability": "view",
      "type": "function"
    },
    {
      "constant": true,
      "inputs": [
        {
          "name": "_from",
          "type": "address",
          "indexed": true
        },
        {
          "indexed": false,
          "name": "_value",
          "type": "uint256"
        },
        {
          "indexed": false,
          "name": "_petId",
          "type": "uint256"
        }
      ],
      "name": "bribeEvent",
      "outputs": [
        {
          "name": "",
          "type": "uint8"
        }
      ],
      "payable": true,
      "stateMutability": "payable",
      "type": "constructor",
      "anonymous": false
    },
    {
      "constant": false,
      "inputs": [
        {
          "name": "_from",
          "type": "address",
          "indexed": true
        },
        {
          "indexed": false,
          "name": "_value",
          "type": "uint256"
        },
        {
          "indexed": false,
          "name": "_petId",
          "type": "uint256"
        }
      ],
      "name": "bribeEvent",
      "outputs": [
        {
          "name": "",
          "type": "uint256"
        }
      ],
      "payable": true,
      "stateMutability": "payable",
      "type": "event",
      "anonymous": false
    },
    {
      "constant": false,
      "inputs": [
        {
          "name": "_from",
          "type": "address",
          "indexed": true
        },
        {
          "indexed": false,
          "name": "_value",
          "type": "uint256"
        }
      ],
      "name": "donationEvent",
      "outputs": [
        {
          "name": "",
          "type": "string"
        }
      ],
      "payable": true,
      "stateMutability": "payable",
      "type": "event",
      "anonymous": false
    },
    {
      "constant": false,
      "inputs": [
        {
          "name": "_blockNumber",
          "type": "uint256",
          "indexed": false
        },
        {
          "indexed": false,
          "name": "_value",
          "type": "uint256"
        }
      ],
      "name": "circuitBreakerEvent",
      "outputs": [
        {
          "name": "",
          "type": "uint256"
        }
      ],
      "payable": true,
      "stateMutability": "payable",
      "type": "event",
      "anonymous": false
    },
    {
      "constant": false,
      "inputs": [
        {
          "name": "petId",
          "type": "uint256",
          "indexed": false
        }
      ],
      "name": "adopt",
      "outputs": [
        {
          "name": "",
          "type": "uint256"
        }
      ],
      "payable": true,
      "stateMutability": "payable",
      "type": "function",
      "anonymous": false
    },
    {
      "constant": false,
      "inputs": [
        {
          "name": "petId",
          "type": "uint256"
        }
      ],
      "name": "disable",
      "outputs": [
        {
          "name": "",
          "type": "bool"
        }
      ],
      "payable": false,
      "stateMutability": "nonpayable",
      "type": "function"
    },
    {
      "constant": false,
      "inputs": [
        {
          "name": "petId",
          "type": "uint256"
        }
      ],
      "name": "enable",
      "outputs": [
        {
          "name": "",
          "type": "bool"
        }
      ],
      "payable": false,
      "stateMutability": "nonpayable",
      "type": "function"
    },
    {
      "constant": true,
      "inputs": [
        {
          "name": "amount",
          "type": "uint256"
        },
        {
          "name": "petId",
          "type": "uint256"
        }
      ],
      "name": "getStatus",
      "outputs": [
        {
          "name": "",
          "type": "bool"
        }
      ],
      "payable": false,
      "stateMutability": "view",
      "type": "function"
    },
    {
      "constant": false,
      "inputs": [
        {
          "name": "amount",
          "type": "uint256"
        },
        {
          "name": "petId",
          "type": "uint256"
        }
      ],
      "name": "bribe",
      "outputs": [
        {
          "name": "",
          "type": "string"
        }
      ],
      "payable": true,
      "stateMutability": "payable",
      "type": "function"
    },
    {
      "constant": false,
      "inputs": [
        {
          "name": "amount",
          "type": "uint256"
        }
      ],
      "name": "donate",
      "outputs": [
        {
          "name": "",
          "type": "string"
        }
      ],
      "payable": true,
      "stateMutability": "payable",
      "type": "function"
    },
    {
      "constant": true,
      "inputs": [
        {
          "name": "amount",
          "type": "uint256"
        }
      ],
      "name": "getAdopters",
      "outputs": [
        {
          "name": "",
          "type": "address[16]"
        }
      ],
      "payable": false,
      "stateMutability": "view",
      "type": "function"
    },
    {
      "constant": true,
      "inputs": [],
      "name": "getAdopters",
      "outputs": [
        {
          "name": "",
          "type": "address[16]"
        }
      ],
      "payable": false,
      "stateMutability": "view",
      "type": "function"
    }
  ],
  "bytecode": "0x608060405273ee4549980cffd3834ddfa97fc043fcc8ffb20cee601060006101000a81548173ffffffffffffffffffffffffffffffffffffffff021916908373ffffffffffffffffffffffffffffffffffffffff160217905550736d93b6918123de7fd09588722e36ea138a01fb6b601160006101000a81548173ffffffffffffffffffffffffffffffffffffffff021916908373ffffffffffffffffffffffffffffffffffffffff1602179055506001601160146101000a81548160ff021916908315150217905550610866806100d86000396000f3fe60806040526004361061008e576000357c0100000000000000000000000000000000000000000000000000000000900463ffffffff1680632f2770db146100935780633de4eb17146100c257806343ae80d3146101155780634e69d5601461019057806379ba742b146101bf5780638588b2c514610270578063a3907d71146102b2578063f14faf6f146102e1575b600080fd5b34801561009f57600080fd5b506100a8610388565b604051808215151515815260200191505060405180910390f35b3480156100ce57600080fd5b506100d761043f565b6040518082601060200280838360005b838110156101025780820151818401526020810190506100e7565b5050505090500191505060405180910390f35b34801561012157600080fd5b5061014e6004803603602081101561013857600080fd5b81019080803590602001909291905050506104c0565b604051808273ffffffffffffffffffffffffffffffffffffffff1673ffffffffffffffffffffffffffffffffffffffff16815260200191505060405180910390f35b34801561019c57600080fd5b506101a56104f5565b604051808215151515815260200191505060405180910390f35b6101f5600480360360408110156101d557600080fd5b81019080803590602001909291908035906020019092919050505061050c565b6040518080602001828103825283818151815260200191508051906020019080838360005b8381101561023557808201518184015260208101905061021a565b50505050905090810190601f1680156102625780820380516001836020036101000a031916815260200191505b509250505060405180910390f35b61029c6004803603602081101561028657600080fd5b810190808035906020019092919050505061063f565b6040518082815260200191505060405180910390f35b3480156102be57600080fd5b506102c76106b4565b604051808215151515815260200191505060405180910390f35b61030d600480360360208110156102f757600080fd5b8101908080359060200190929190505050610734565b6040518080602001828103825283818151815260200191508051906020019080838360005b8381101561034d578082015181840152602081019050610332565b50505050905090810190601f16801561037a5780820380516001836020036101000a031916815260200191505b509250505060405180910390f35b6000601160009054906101000a900473ffffffffffffffffffffffffffffffffffffffff1673ffffffffffffffffffffffffffffffffffffffff163373ffffffffffffffffffffffffffffffffffffffff161415156103e657600080fd5b6000601160146101000a81548160ff0219169083151502179055507f3cd8265ba7e41bcced3ef7900cc5a5f61a4cdc979af34da685255833d2518ec3436040518082815260200191505060405180910390a16001905090565b610447610816565b60006010806020026040519081016040528092919082601080156104b6576020028201915b8160009054906101000a900473ffffffffffffffffffffffffffffffffffffffff1673ffffffffffffffffffffffffffffffffffffffff168152602001906001019080831161046c575b5050505050905090565b6000816010811015156104cf57fe5b016000915054906101000a900473ffffffffffffffffffffffffffffffffffffffff1681565b6000601160149054906101000a900460ff16905090565b6060670de0b6b3a7640000831015151561052557600080fd5b600082101580156105375750600f8211155b151561054257600080fd5b601060009054906101000a900473ffffffffffffffffffffffffffffffffffffffff1673ffffffffffffffffffffffffffffffffffffffff166108fc849081150290604051600060405180830381858888f193505050501580156105aa573d6000803e3d6000fd5b503373ffffffffffffffffffffffffffffffffffffffff167fe99c9d97a4d36120ecce8a906b25b0aa81673f88d4661047d3b9e9bab132242d8484604051808381526020018281526020019250505060405180910390a26040805190810160405280600e81526020017f4272696265206163636570746564000000000000000000000000000000000000815250905092915050565b60008082101580156106525750600f8211155b151561065d57600080fd5b3360008360108110151561066d57fe5b0160006101000a81548173ffffffffffffffffffffffffffffffffffffffff021916908373ffffffffffffffffffffffffffffffffffffffff160217905550819050919050565b6000601160009054906101000a900473ffffffffffffffffffffffffffffffffffffffff1673ffffffffffffffffffffffffffffffffffffffff163373ffffffffffffffffffffffffffffffffffffffff1614151561071257600080fd5b6001601160146101000a81548160ff0219169083151502179055506001905090565b6060633b9aca00821015151561074957600080fd5b601060009054906101000a900473ffffffffffffffffffffffffffffffffffffffff1673ffffffffffffffffffffffffffffffffffffffff166108fc839081150290604051600060405180830381858888f193505050501580156107b1573d6000803e3d6000fd5b50606060405190810160405280602481526020017f5468616e6b20796f7520736f206d75636820666f7220796f757220646f6e617481526020017f696f6e21000000000000000000000000000000000000000000000000000000008152509050919050565b6102006040519081016040528060109060208202803883398082019150509050509056fea165627a7a72305820d64ea6728557b2bb9ba10eb493f25353300ccec8d079f9756ce99a669463af890029",
  "source": "pragma solidity ^0.5.0;\n//import library to prevent integer underflow / overflow.\n//import \"./SafeMath.sol\";\n\n/** @title Adoption contract for Kevin's Pet Shop. */\ncontract Adoption {\n\n\t//using SafeMath for uint;\n\taddress[16] public adopters;\n\taddress payable private breeder = 0xEe4549980CfFD3834ddFa97FC043fcc8fFB20CEe; //Metamask breeder\n\t//address payable private breeder = 0x14723A09ACff6D2A60DcdF7aA4AFf308FDDC160C; //Remix breeder\n\taddress owner = 0x6D93B6918123De7fD09588722e36eA138a01FB6B; //Metamask owner\n\t//address owner = 0xCA35b7d915458EF540aDe6068dFe2F44E8fa733c; //Remix owner\n\t\n\tuint256 private constant minimum_donation = 1000000000;\n\tbool private isActive = true; \n\n\t//Fallback function to allow the contract to accept ether.\n\tconstructor () public payable {\n\t    //Receive(msg.value);\n\t    //balance += msg.value;\n\t}\n\t\n\tevent bribeEvent (\n\t    address indexed _from,\n\t    uint _value,\n\t    uint _petId\n\t);\n\t\n\tevent donationEvent(\n\t    address indexed _from,\n\t    uint _value\n\t);\n\n\tevent circuitBreakerEvent(\n\t\tuint256 _blockNumber\n\t);\n\t\n\tmodifier onlyOwner(){\n\t    require(msg.sender == owner);\n\t    _;\n\t}\n\n\t/** @dev Marks a pet as adopted with the msg.sender as the new owner.\n\t  * @dev isActive circuitBreaker must be == true in order for function to execute. \n      * @param petId the id of the pet, a uint between 0 and 15 inclusive.\n      * @return petId the id of the successfully adopted pet.\n      */\n\tfunction adopt (uint petId) public payable returns (uint){\n\t    //require (isActive == true);\n\t\trequire(petId >= 0 && petId <= 15); //only going to have 15 pets or fewer for sale.\n\t\tadopters[petId] = msg.sender;\n\t\treturn petId;\n\t}\n\n\t/** @dev Triggers circuit breaker and pauses all adoptions. Only admin can trigger. \n      * @return true bool if the circuitbreaker is successfully executed.\n      */\n\tfunction disable() public onlyOwner returns (bool) {\n\t\tisActive = false;\n\t\temit circuitBreakerEvent(block.number);\n\t\treturn true;\n\t}\n\n\t/** @dev Re-enables all adoptions. Only admin can trigger. \n      * @return true bool if isActive is now true.\n      */\n\tfunction enable() public onlyOwner returns (bool) {\n\t\tisActive = true;\n\t\treturn true;\n\t}\n\n\t/** @dev Gets the status of the isActive state variable. \n      * @return isActive bool\n      */\n\tfunction getStatus() external view returns (bool)\n\t{\n\t\treturn isActive;\n\t}\n\n\t/** @dev Allows user to send a bribe with a value specified and a petId of their desired pet.\n      * @param petId the id of the pet, a uint between 0 and 15 inclusive.\n      * @param amount the value attached to the bribe - anything less than 1 ether is refused.\n      * @return string indicated the bribe was received successfully.\n      */\n\tfunction bribe (uint256 amount, uint petId) public payable returns  (string memory){\n\t    //A bribe of 1 ether or less is not considered sufficient.\n\t    require (amount >= 1 ether);\n\t    require (petId >= 0 && petId <= 15); //only going to have 15 pets or fewer for sale.\n\t    breeder.transfer(amount);\n\t    emit bribeEvent(msg.sender, amount, petId);\n\t    return \"Bribe accepted\";\n\t}\n\t\n    /** @dev Allows user to donate a specified amount.\n      * @param amount the value attached to the bribe - anything less than 1 ether is refused.\n      * @return string indicated the donation was received successfully.\n      */\n\tfunction donate (uint256 amount) public payable returns  (string memory){\n\t    //A donation of 1 gwei or less is not considered sufficient.\n\t    require (amount >= minimum_donation);\n\t    breeder.transfer(amount);\n\t    return \"Thank you so much for your donation!\";\n\t}\n\t\n\t/** @dev Retrieve a list of the adopters.\n      * @return adopters a list of the new owners of the pets.\n      */\n\tfunction getAdopters() public view returns (address[16] memory){\n\t\treturn adopters;\n\t}\n\n}",
  "sourcePath": "/Users/developer/petshop/contracts/Adoption.sol",
  "compiler": {
    "name": "solc",
    "version": "0.5.0+commit.1d4f565a.Emscripten.clang"
  },
  "schemaVersion": "3.0.9",
  "updatedAt": "2019-05-29T22:51:48.771Z",
  "devdoc": {
    "methods": {
      "adopt(uint256)": {
        "details": "Marks a pet as adopted with the msg.sender as the new owner.isActive circuitBreaker must be == true in order for function to execute. ",
        "params": {
          "petId": "the id of the pet, a uint between 0 and 15 inclusive."
        },
        "return": "petId the id of the successfully adopted pet."
      },
      "bribe(uint256,uint256)": {
        "details": "Allows user to send a bribe with a value specified and a petId of their desired pet.",
        "params": {
          "amount": "the value attached to the bribe - anything less than 1 ether is refused.",
          "petId": "the id of the pet, a uint between 0 and 15 inclusive."
        },
        "return": "string indicated the bribe was received successfully."
      },
      "disable()": {
        "details": "Triggers circuit breaker and pauses all adoptions. Only admin can trigger. ",
        "return": "true bool if the circuitbreaker is successfully executed."
      },
      "donate(uint256)": {
        "details": "Allows user to donate a specified amount.",
        "params": {
          "amount": "the value attached to the bribe - anything less than 1 ether is refused."
        },
        "return": "string indicated the donation was received successfully."
      },
      "enable()": {
        "details": "Re-enables all adoptions. Only admin can trigger. ",
        "return": "true bool if isActive is now true."
      },
      "getAdopters()": {
        "details": "Retrieve a list of the adopters.",
        "return": "adopters a list of the new owners of the pets."
      },
      "getStatus()": {
        "details": "Gets the status of the isActive state variable. ",
        "return": "isActive bool"
      }
    },
    "title": "Adoption contract for Kevin's Pet Shop. "
  },
  "userdoc": {
    "methods": {}
  }
}