{
  "contractName": "Adoption",
  "abi": [
    {
      "constant": true,
      "inputs": [],
      "name": "isActive",
      "outputs": [
        {
          "name": "",
          "type": "bool"
        }
      ],
      "payable": false,
      "stateMutability": "view",
      "type": "function"
    },
    {
      "constant": true,
      "inputs": [
        {
          "name": "",
          "type": "uint256"
        }
      ],
      "name": "adopters",
      "outputs": [
        {
          "name": "",
          "type": "address"
        }
      ],
      "payable": false,
      "stateMutability": "view",
      "type": "function"
    },
    {
      "constant": true,
      "inputs": [],
      "name": "num",
      "outputs": [
        {
          "name": "",
          "type": "uint8"
        }
      ],
      "payable": false,
      "stateMutability": "view",
      "type": "function"
    },
    {
      "inputs": [],
      "payable": true,
      "stateMutability": "payable",
      "type": "constructor"
    },
    {
      "anonymous": false,
      "inputs": [
        {
          "indexed": true,
          "name": "_from",
          "type": "address"
        },
        {
          "indexed": false,
          "name": "_value",
          "type": "uint256"
        }
      ],
      "name": "donationEvent",
      "type": "event"
    },
    {
      "anonymous": false,
      "inputs": [
        {
          "indexed": false,
          "name": "_admin",
          "type": "address"
        }
      ],
      "name": "circuitBreakerEvent",
      "type": "event"
    },
    {
      "constant": false,
      "inputs": [
        {
          "name": "petId",
          "type": "uint256"
        }
      ],
      "name": "adopt",
      "outputs": [
        {
          "name": "",
          "type": "uint256"
        }
      ],
      "payable": true,
      "stateMutability": "payable",
      "type": "function"
    },
    {
      "constant": false,
      "inputs": [
        {
          "name": "petId",
          "type": "uint256"
        }
      ],
      "name": "markDisabled",
      "outputs": [
        {
          "name": "",
          "type": "uint256"
        }
      ],
      "payable": false,
      "stateMutability": "nonpayable",
      "type": "function"
    },
    {
      "constant": false,
      "inputs": [],
      "name": "disable",
      "outputs": [
        {
          "name": "",
          "type": "bool"
        }
      ],
      "payable": false,
      "stateMutability": "nonpayable",
      "type": "function"
    },
    {
      "constant": false,
      "inputs": [
        {
          "name": "petId",
          "type": "uint256"
        }
      ],
      "name": "enable",
      "outputs": [
        {
          "name": "",
          "type": "bool"
        }
      ],
      "payable": false,
      "stateMutability": "nonpayable",
      "type": "function"
    },
    {
      "constant": true,
      "inputs": [
        {
          "name": "amount",
          "type": "uint256"
        }
      ],
      "name": "getStatus",
      "outputs": [
        {
          "name": "",
          "type": "bool"
        }
      ],
      "payable": false,
      "stateMutability": "view",
      "type": "function"
    },
    {
      "constant": false,
      "inputs": [
        {
          "name": "petId",
          "type": "uint256"
        }
      ],
      "name": "circuitBreak",
      "outputs": [
        {
          "name": "",
          "type": "uint256"
        }
      ],
      "payable": true,
      "stateMutability": "payable",
      "type": "function"
    },
    {
      "constant": false,
      "inputs": [
        {
          "name": "amount",
          "type": "uint256"
        }
      ],
      "name": "bribe",
      "outputs": [
        {
          "name": "",
          "type": "string"
        }
      ],
      "payable": true,
      "stateMutability": "payable",
      "type": "function"
    },
    {
      "constant": false,
      "inputs": [
        {
          "name": "amount",
          "type": "uint256"
        }
      ],
      "name": "donate",
      "outputs": [
        {
          "name": "",
          "type": "string"
        }
      ],
      "payable": true,
      "stateMutability": "payable",
      "type": "function"
    },
    {
      "constant": true,
      "inputs": [],
      "name": "getAdopters",
      "outputs": [
        {
          "name": "",
          "type": "address[16]"
        }
      ],
      "payable": false,
      "stateMutability": "view",
      "type": "function"
    }
  ],
  "bytecode": "0x608060405273ee4549980cffd3834ddfa97fc043fcc8ffb20cee601060006101000a81548173ffffffffffffffffffffffffffffffffffffffff021916908373ffffffffffffffffffffffffffffffffffffffff160217905550736d93b6918123de7fd09588722e36ea138a01fb6b601160006101000a81548173ffffffffffffffffffffffffffffffffffffffff021916908373ffffffffffffffffffffffffffffffffffffffff1602179055506001601160146101000a81548160ff0219169083151502179055506001601160156101000a81548160ff021916908360ff1602179055506108bb806100f46000396000f3fe6080604052600436106100ba576000357c0100000000000000000000000000000000000000000000000000000000900463ffffffff16806322f3e2d4146100bf5780632f2770db146100ee57806332bdd10d1461011d5780633de4eb17146101c457806343ae80d3146102175780634e69d560146102925780634e70b1dc146102c157806351932f41146102f25780638588b2c514610334578063887befe214610376578063a3907d71146103c5578063f14faf6f146103f4575b600080fd5b3480156100cb57600080fd5b506100d461049b565b604051808215151515815260200191505060405180910390f35b3480156100fa57600080fd5b506101036104ae565b604051808215151515815260200191505060405180910390f35b6101496004803603602081101561013357600080fd5b81019080803590602001909291905050506104d1565b6040518080602001828103825283818151815260200191508051906020019080838360005b8381101561018957808201518184015260208101905061016e565b50505050905090810190601f1680156101b65780820380516001836020036101000a031916815260200191505b509250505060405180910390f35b3480156101d057600080fd5b506101d9610590565b6040518082601060200280838360005b838110156102045780820151818401526020810190506101e9565b5050505090500191505060405180910390f35b34801561022357600080fd5b506102506004803603602081101561023a57600080fd5b8101908080359060200190929190505050610611565b604051808273ffffffffffffffffffffffffffffffffffffffff1673ffffffffffffffffffffffffffffffffffffffff16815260200191505060405180910390f35b34801561029e57600080fd5b506102a7610646565b604051808215151515815260200191505060405180910390f35b3480156102cd57600080fd5b506102d661065d565b604051808260ff1660ff16815260200191505060405180910390f35b61031e6004803603602081101561030857600080fd5b8101908080359060200190929190505050610670565b6040518082815260200191505060405180910390f35b6103606004803603602081101561034a57600080fd5b810190808035906020019092919050505061067a565b6040518082815260200191505060405180910390f35b34801561038257600080fd5b506103af6004803603602081101561039957600080fd5b81019080803590602001909291905050506106ef565b6040518082815260200191505060405180910390f35b3480156103d157600080fd5b506103da610765565b604051808215151515815260200191505060405180910390f35b6104206004803603602081101561040a57600080fd5b8101908080359060200190929190505050610789565b6040518080602001828103825283818151815260200191508051906020019080838360005b83811015610460578082015181840152602081019050610445565b50505050905090810190601f16801561048d5780820380516001836020036101000a031916815260200191505b509250505060405180910390f35b601160149054906101000a900460ff1681565b600080601160146101000a81548160ff0219169083151502179055506001905090565b6060670de0b6b3a764000082101515156104ea57600080fd5b601060009054906101000a900473ffffffffffffffffffffffffffffffffffffffff1673ffffffffffffffffffffffffffffffffffffffff166108fc839081150290604051600060405180830381858888f19350505050158015610552573d6000803e3d6000fd5b506040805190810160405280600e81526020017f42726962652061636365707465640000000000000000000000000000000000008152509050919050565b61059861086b565b6000601080602002604051908101604052809291908260108015610607576020028201915b8160009054906101000a900473ffffffffffffffffffffffffffffffffffffffff1673ffffffffffffffffffffffffffffffffffffffff16815260200190600101908083116105bd575b5050505050905090565b60008160108110151561062057fe5b016000915054906101000a900473ffffffffffffffffffffffffffffffffffffffff1681565b6000601160149054906101000a900460ff16905090565b601160159054906101000a900460ff1681565b6000819050919050565b600080821015801561068d5750600f8211155b151561069857600080fd5b336000836010811015156106a857fe5b0160006101000a81548173ffffffffffffffffffffffffffffffffffffffff021916908373ffffffffffffffffffffffffffffffffffffffff160217905550819050919050565b60008082101580156107025750600f8211155b151561070d57600080fd5b600160008360108110151561071e57fe5b0160006101000a81548173ffffffffffffffffffffffffffffffffffffffff021916908373ffffffffffffffffffffffffffffffffffffffff160217905550819050919050565b60006001601160146101000a81548160ff0219169083151502179055506001905090565b6060633b9aca00821015151561079e57600080fd5b601060009054906101000a900473ffffffffffffffffffffffffffffffffffffffff1673ffffffffffffffffffffffffffffffffffffffff166108fc839081150290604051600060405180830381858888f19350505050158015610806573d6000803e3d6000fd5b50606060405190810160405280602481526020017f5468616e6b20796f7520736f206d75636820666f7220796f757220646f6e617481526020017f696f6e21000000000000000000000000000000000000000000000000000000008152509050919050565b6102006040519081016040528060109060208202803883398082019150509050509056fea165627a7a7230582008a51efd28283c3e82e22dac1b51c911dd29021a1e971833af9a8c63a6648ecb0029",
  "source": "pragma solidity ^0.5.0;\n//import library to prevent integer underflow / overflow.\nimport \"./SafeMath.sol\";\n\ncontract Adoption {\n\n\tusing SafeMath for uint;\n\taddress[16] public adopters;\n\taddress payable private breeder = 0xEe4549980CfFD3834ddFa97FC043fcc8fFB20CEe;\n\taddress owner = 0x6D93B6918123De7fD09588722e36eA138a01FB6B;\n\n\tbool public isActive = true; \n\tuint8 public num = 1;\n\n\t//Fallback function to allow the contract to accept ether.\n\tconstructor () public payable {\n\t    //Receive(msg.value);\n\t    //balance += msg.value;\n\t}\n\t\n\t// event bribeEvent (\n\t//     address indexed _from,\n\t//     uint _value\n\t// );\n\t\n\tevent donationEvent(\n\t    address indexed _from,\n\t    uint _value\n\t);\n\n\t//test\n\n\tevent circuitBreakerEvent(\n\t\taddress _admin\n\t);\n\n\t//Adopt a pet\n\tfunction adopt (uint petId) public payable returns (uint){\n\t\trequire(petId >= 0 && petId <= 15); //only going to have 15 pets or fewer for sale.\n\t\tadopters[petId] = msg.sender;\n\t\treturn petId;\n\t}\n\n\t//Mark disabled (function for circuit breaker)\n\tfunction markDisabled (uint petId) public returns (uint){\n\t\trequire(petId >= 0 && petId <= 15); //only going to have 15 pets or fewer for sale.\n\t\tadopters[petId] = 0x0000000000000000000000000000000000000001;\n\t\treturn petId;\n\t}\n\n\t//Admin Only Function - Circuit Breaker\n\tfunction disable() public returns (bool) {\n\t\tisActive = false;\n\t\t//require(msg.sender == owner); //allow only owners to initiate a circuit breaker\n\t\treturn true;\n\t}\n\n\t//Admin Only Function - Circuit Breaker\n\tfunction enable() public returns (bool) {\n\t\tisActive = true;\n\t\t//require(msg.sender == owner); //allow only owners to initiate a circuit breaker\n\t\treturn true;\n\t}\n\n\tfunction getStatus() external view returns (bool)\n\t{\n\t\treturn isActive;\n\t}\n\n\t//Admin Only Function - Circuit Breaker\n\tfunction circuitBreak(uint petId) public payable returns (uint) {\n\t\t//require(msg.sender == owner); //allow only owners to initiate a circuit breaker\n\t\treturn petId;\n\t}\n\t\n\t//Bribe the breeder to give you the dog you really want\n\tfunction bribe (uint256 amount) public payable returns  (string memory){\n\t    //A bribe of 1 ether or less is not considered sufficient.\n\t    require (amount >= 1 ether);\n\t    breeder.transfer(amount);\n\t    //emit bribeEvent(msg.sender, amount);\n\t    return \"Bribe accepted\";\n\t}\n\t\n    //Make a tax deductible donation to the shelter. Note, no goods or services will be provided in exchange for the donation.\n\tfunction donate (uint256 amount) public payable returns  (string memory){\n\t    //A donation of 1 gwei or less is not considered sufficient.\n\t    require (amount >= 1000000000);\n\t    breeder.transfer(amount);\n\t    return \"Thank you so much for your donation!\";\n\t}\n\t\n\n\t//Retrieve a list of the adopters.\n\t//View keyword in the contract means that the function will not modify the state of the contract.\n\tfunction getAdopters() public view returns (address[16] memory){\n\t\treturn adopters;\n\t}\n\n}",
  "sourcePath": "/Users/developer/petshop/contracts/Adoption.sol",
  "compiler": {
    "name": "solc",
    "version": "0.5.0+commit.1d4f565a.Emscripten.clang"
  },
  "schemaVersion": "3.0.9",
  "updatedAt": "2019-05-30T00:16:39.496Z",
  "devdoc": {
    "methods": {}
  },
  "userdoc": {
    "methods": {}
  }
}